:10000000BDEF00F0936A14C08AFFF8EF00F0936A26
:100010008A6A1200EA6A1B0EE96EEF500EE0010ECA
:10002000016E006A002EFED7012EFBD74A0E006E2D
:10003000002EFED700D0EF2EF2D712001A6A16500B
:100040001A5C14E21A50070B176E036A1750040F5C
:10005000E96E000E0320EA6EEFCF1BF0946A1BC01E
:100060008BFF320E1B6ED6DF1A2AE9D712001A6AEE
:1000700016501A5C14E21A50070B176E036A1750D9
:100080000C0FE96E000E0320EA6EEFCF1BF0946AAE
:100090001BC08BFF320E1B6EBDDF1A2AE9D703EFA0
:1000A00001F016C01AF01A5214E01A50070B176E1E
:1000B000036A1750040FE96E000E0320EA6EEFCFBB
:1000C0001BF0946A1BC08BFF320E1B6EA3DF1A0657
:1000D000EAD712001A6A18501A5C14E21A50070B79
:1000E000176E036A1750040FE96E000E0320EA6EC4
:1000F000EFCF1BF0956A1BC08CFF320E1B6E8ADFA0
:100100001A2AE9D705EF01F016C01AF01A5214E0C6
:100110001A50070B176E036A17500C0FE96E000E8A
:100120000320EA6EEFCF1BF0946A1BC08BFF320EE8
:100130001B6E70DF1A06EAD707EF01F0936A15C04D
:100140008AFF09EF01F018C01AF01A5214E01A5091
:10015000070B176E036A1750040FE96E000E032099
:10016000EA6EEFCF1BF0956A1BC08CFF320E1B6E40
:1001700051DF1A06EAD70AEF01F0F86AD09E050EA1
:10018000146E280E156E166E3C0E186E196EC18018
:10019000C182C184C196010E046E030E056E020E6B
:1001A000066E060E076E040E086E0C0E096E080E23
:1001B0000A6E090E0B6E100E0C6E300E0D6E200EB8
:1001C0000E6E600E0F6E400E106EC00E116E800E21
:1001D000126E900E136EFF0E926E000E936E946E62
:1001E000956E936A8A6A946A8B6A956A8C6A0AD752
:1001F000928080A0FDD7420E006E002EFED7000038
:1002000006DF1CDF34D74DDF65D718DF7DD749DF28
:1002100095D799D7928280A2FDD7420E006E002E0C
:0A022000FED70000F4DEE3D7030070
:020000040030CA
:0E00000000210C0E000181000FC00FE00F4028
:00000001FF
;PIC18F452
;CRC=BC7A  CREATED="20-May-23 15:05"
